:020000040800F2
:1000000000000320BD050008491E00084B1E000823
:100010004D1E00084F1E0008511E00080000000081
:10002000000000000000000000000000E16900087E
:10003000531E000800000000716A0008ED6200080D
:100040000D0600080D0600080D0600080D06000844
:100050000D0600080D060008791E00080D060008B0
:100060000D0600080D0600080D0600080D06000824
:100070000D0600080D0600080D0600080D06000814
:100080000D0600080D0600080D0600080D06000804
:100090000D0600080D0600080D0600080D060008F4
:1000A0000D0600080D0600080D0600080D060008E4
:1000B0000D0600080D0600080D0600080D060008D4
:1000C0000D0600080D0600080D0600080D060008C4
:1000D0000D0600080D0600080D0600080D060008B4
:1000E0000D0600080D0600080D0600080D060008A4
:1000F0000D0600080D0600080D0600080D06000894
:100100000D0600080D0600080D0600080D06000883
:100110000D0600080D060008551E00080D06000813
:100120000D0600080D0600080D0600080D06000863
:100130000D0600080D0600080D0600080D06000853
:100140000D0600080D0600080D0600080D06000843
:100150000D0600080D0600080D0600080D06000833
:100160000D0600080D0600080D0600080D06000823
:100170000D0600080D0600080D060008000000002E
:100180000D0600080D0600080D0600080D06000803
:100190000D0600080D0600080D0600080D060008F3
:0C01A000611E00080D0600086D1E00081E
:1001B00010B5054C237833B9044B13B10448AFF3A1
:1001C00000800123237010BDF0000020000000001B
:1001D0003830010808B5034B1BB103490348AFF39E
:1001E000008008BD00000000F40000203830010845
:1001F00001F0FF01102A2BDB10F0070F08D010F8D8
:10020000013B013A8B422DD010F0070F42B3F6D1DB
:10021000F0B441EA012141EA014122F007047FF0F4
:1002200000070023F0E80256083C85EA010586EA4B
:10023000010685FA47F5A3FA87F586FA47F6A5FA87
:1002400087F68EB9EED1F0BC01F0FF0102F0070293
:1002500032B110F8013B013A83EA010313B1F8D13E
:100260000020704701387047002D06BF354603381F
:10027000073815F0010F07D1013015F4807F02BF58
:10028000013015F4C03F0130F0BC0138704700BFA9
:1002900053B94AB9002908BF00281CBF4FF0FF31ED
:1002A0004FF0FF3000F088B9ADF1080C6DE904CED5
:1002B00000F006F8DDF804E0DDE9022304B0704741
:1002C0002DE9F047089D8E4604468846002B4AD10A
:1002D0008A42174662D9B2FA82F64EB1C6F12003BD
:1002E00001FA06F820FA03F3B74043EA0808B440DD
:1002F0004FEA174E1FFA87FCB8FBFEF1230C0EFBEA
:10030000118843EA084301FB0CF29A4209D9FB1811
:1003100001F1FF3080F0EA809A4240F2E780023932
:100320003B449A1AA3B2B2FBFEF00EFB102243EA42
:10033000024300FB0CFC9C4509D9FB1800F1FF327D
:1003400080F0D6809C4540F2D3803B44023840EA9E
:100350000140A3EB0C0300211DB1F3400022C5E9CD
:100360000032BDE8F0878B4205D90DB1C5E9000127
:1003700000210846F5E7B3FA83F1002946D1734519
:1003800002D3824200F20581841A6EEB030201203F
:100390009046002DE5D0C5E90048E2E7002A00F0CC
:1003A0009080B2FA82F6002E40F0A4808A1A030CE4
:1003B0004FEA174E80B2BCB20121B2FBFEFC0EFB2D
:1003C0001C2243EA024304FB0CF29A4207D9FB18B1
:1003D0000CF1FF3802D29A4200F2E080C4469B1A28
:1003E000B3FBFEF20EFB123340EA034302FB04F4BC
:1003F0009C4207D9FB1802F1FF3002D29C4200F266
:10040000CA8002461B1B42EA0C40A5E7C1F1200648
:100410008B4022FA06F71F430EFA01F420FA06F386
:100420002EFA06FE4FEA1749234300FA01F81FFA95
:1004300087FCBEFBF9F01C0C09FB10EE44EA0E44ED
:1004400000FB0CFEA64502FA01F209D93C1900F1A5
:10045000FF3A80F09C80A64540F2998002383C44E7
:10046000A4EB0E041FFA83FEB4FBF9F309FB13445B
:100470004EEA044403FB0CFCA44508D93C1903F1E3
:10048000FF3E80F08280A4457FD9023B3C4443EA92
:100490000040A4EB0C04A0FB02EC64457346E1466B
:1004A00062D35FD05DB1B8EB030264EB090404FAD8
:1004B00006F622FA01F31E43CC40C5E90064002190
:1004C0004FE7B1FBF2FC010C41EA0E4180B240EA79
:1004D00001423B4638463C46B846BE462026B1FB64
:1004E000F7F1A2EB080241EA0C4166E7014618E782
:1004F00010462CE7C6F120022EFA02F3B740B140B5
:1005000020FA02F24FEA174E0A43B3FBFEF8BCB2E0
:100510000EFB1833110C41EA034108FB04F9B0400B
:1005200089454FEA104380B23ED9791808F1FF3C63
:1005300001D289451FD8A1EB0901B1FBFEF909FBE6
:1005400004F80EFB191192B242EA0142424529D247
:10055000BA1809F1FF31C4D24245C2D2A9F1020151
:100560003A44BEE7F0459DD2BEEB02036CEB070CAC
:100570000138E14696E7A7EB09094944A8F1020CC6
:10058000B1FBFEF909FB04F8DBE773467FE7504651
:1005900066E70846FDE63B44023A33E7ACF1020C5D
:1005A0003B441CE749469CE7A1EB0901C446B1FB6B
:1005B000FEF909FB04F8C4E7704700BFDFF834D048
:1005C000002103E00C4B5B58435004310B480C4BAB
:1005D00042189A42F6D30B4A02E0002342F8043B49
:1005E000094B9A42F9D303F07BFC11F0B7FF00F0FE
:1005F00007FF70470000032064720E08000000200F
:10060000F0000020F0000020AC290120FEE700F0FF
:10061000C1BC00F02FBD704710B50421044611F095
:10062000BFFC204610BD000038B50C4B0C4C1880A8
:100630000C4B822019806368984740F6110398425A
:100640000AD1094D23682C60822098472B688220AC
:10065000DB689847002038BD0120FCE71601002028
:100660004C00002014010020180100204FF4A0715C
:10067000F020FFF7D9BF0000F7B5354D2B680446D1
:100680001B6982209847208000284BD02B680DF1F1
:1006900006025B6901A982209847BDF8063040F642
:1006A0007462934240D9ADF80620BDF80630D21AE4
:1006B00092B20A2A3ED90B23B2FBF3F2254B1B88D8
:1006C0009A4201D9013B9AB2BDF80430224840F663
:1006D000B8318B4230D8C3F571630E3301689BB2D9
:1006E0000F25B3FBF5F31D4D2D88AB4284BF05F1FB
:1006F000FF35ABB28B421D468EB226D99B1B99B2F9
:10070000174E3768BBB2BA428CBFD31A9B1A9BB242
:1007100019440529C8BF05600368C8BF32606380FB
:100720003368A38003B0F0BDB32B9CBFB423ADF8F6
:100730000630BAE70022C7E7C3F56D6308339BB202
:100740000E2B0168CCD800252B46C91A89B2D7E7F1
:1007500018010020140100201001002016010020C3
:100760000C01002037B568460D461446FFF784FF9C
:10077000BDF8000030B1BDF802302B60BDF8043088
:100780002360012003B030BD032821D8DFE800F04A
:10079000020B12190F4B1A68B2FA82F252090421A5
:1007A0000D4803F031BE0B4B5A68B2FA82F252097F
:1007B0000821F5E7074B9A68B2FA82F25209102134
:1007C000EEE7044BDA68B2FA82F252092021E7E739
:1007D000704700BF1C01002000100240032821D8F0
:1007E000DFE800F0020B12190F4B1A68003A18BF2D
:1007F000012204210D4803F007BE0B4B5A68003A52
:1008000018BF01220821F5E7074B9A68003A18BF84
:1008100001221021EEE7044BDA68003A18BF0122EA
:100820002021E7E7704700BF1C01002000100240B4
:1008300003280DD8DFE800F00206080A0421054865
:1008400003F0E7BD0821FAE71021F8E72021F6E7D9
:10085000704700BF0010024008B5032811D8DFE838
:1008600000F0020A0C0E0421074803F0C7FD431EE6
:100870005842584108BD0821F6E71021F4E720212D
:10088000F2E70020F3E700BF0010024070B5084D0A
:1008900000240126E0B2FFF7DFFF18B12B68012B1F
:1008A00018BF2E600134052C05F10405F2D170BD8E
:1008B0001C010020012380F8781080F879307047FF
:1008C0007047002070470000034B4164003918BF97
:1008D00001211970704700BF3726012070470020A2
:1008E0007047836B0BB10846184770474FF6FF708F
:1008F0007047406803689B691847704770477047A6
:100900007047704770B5044600F05EFC2368D3F86A
:100910008C50044BD4E90F122046AC46BDE8704021
:10092000604700BF000000D008B503680446D3F854
:100930008430984723682046DB6F984700F0ECF836
:10094000236820465B6F9847292000F0AFFF00F036
:10095000E3F8236820465B6F9847F8E710B5044634
:1009600008F060FE23682046D3F8BC30BDE8104094
:10097000184700F01BBC00F01FBC00F04BBC00F09F
:10098000F1BB00F04BBC00F053BC00F0F5BB08F02D
:100990006BB810B58421044611F002FB204610BD4F
:1009A00010B590F8341090F878400C4B8C421A78BF
:1009B00009D03AB90A4A0B491488088810800C807B
:1009C00001221A7010BD002AFCD0054A054914887E
:1009D000088810800C800022F3E700BF3026012039
:1009E0002C2601202E26012070B50D46194635B95A
:1009F000094B0A4A0A4840F2FF2111F0FFFAC0E908
:100A00000F52084B003A18BF01221A700368BDE864
:100A10007040D3F890301847A8300108E030010842
:100A20002E3101083626012008B5094B1B888B4260
:100A300003D8084B1B88934205D9074B074A08483F
:100A4000A32111F0DBFA074B1980074B1A8008BD70
:100A50002C2601202E26012073310108D6310108F1
:100A60002E3101083226012034260120034690F859
:100A70007A0018B1586803681B681847704700006F
:100A8000012108B50022084605F0BAFC0A4B18609F
:100A900028B90A4B0A4A28210A4811F0AFFA002265
:100AA0000421012005F054FD074B186018B9074BCD
:100AB000034A2C21F0E708BD30010020193201085B
:100AC00062320108913201082C010020F63201083F
:100AD000024B4FF0FF31186805F0DCBC30010020FC
:100AE000014B186805F002BD30010020024B0021C7
:100AF000186805F0CFBC00BF30010020FFF7F0BF41
:100B000003480449006800231A4605F05CBD00BF95
:100B10002C0100200400002013B5084C00231A46C5
:100B200001A9206805F080FD20684FF0FF33002206
:100B300001A905F079FD02B010BD00BF2C01002015
:100B400003685B6C18470120704703689B6A18476D
:100B500082B0002301930D4B1A6B42F400021A631A
:100B60001A6B02F400020192019A1A6942F400021F
:100B70001A611A6922F400021A61054B054A1A61CA
:100B8000054B4FF080629A6002B070470038024017
:100B900088170020290E000800E100E040F2EF3045
:100BA00070470000054B0360054B4FF08062C3F8AF
:100BB0008820BFF34F8FBFF36F8F70471C3E010833
:100BC00000E100E010B504464FF45A61FFF7EAFF78
:100BD000204611F0E5F9204610BD000008B50A28AE
:100BE00009D8DFE800F006100E08080808101010F9
:100BF0001000022008BD054B054A0648872111F068
:100C0000FDF90020F6E70120F4E700BF38330108C2
:100C1000533301089E33010838B50C46887FFFF72F
:100C2000DDFFA58AE28A164B2169586342EA054234
:100C30005A64628BD963521B1A642568082D0ED141
:100C40009A611A615862207F0E4A42EA0062DA61B4
:100C5000E2681A620C4A5961D9601A6038BD0022F4
:100C6000D8611A61E1680A0A480902F4784200F47E
:100C7000FC600243C1F3C4010A439A63034AECE7F0
:100C800000B002400900010001020200010203005D
:100C900008B50B280BD8DFE800F00612100A0A0A84
:100CA0000A0808080808022008BD0520FCE7054BD3
:100CB000054A0648662111F0A1F90020F4E7012059
:100CC000F2E700BF38330108013401089E33010800
:100CD0002DE9F04191F81D800C464046FFF7D8FF02
:100CE000A77F05463846FFF7D3FF06463846FFF78D
:100CF00075FFA18A628B444B521A1A649A61228B47
:100D0000521A1A61E28A586342EA01425A6421691E
:100D10006268D963DA602068802828D0227F0FD8E3
:100D2000202867D0402865D004281AD0364B45EAE1
:100D3000026545F40035B845DD6161D0334A44E0D1
:100D4000B0F5807F04D0B0F5007FEFD1304800E0EF
:100D5000304840EA0262DA61E2681A625E62596112
:100D600032E045EA026242F40032DA61F6E7A06856
:100D7000021DDA62227F45EA026545F40035DD6135
:100D80005E625961017841B1012921D0224B234A89
:100D9000234840F2111111F031F9DA69418822F447
:100DA0007F42013922F0100242EA0122DA61012178
:100DB000154BDA6942F02002DA61DA699206FCD456
:100DC00010229A600029B9D0164A1A60BDE8F08155
:100DD000B2F1FF01DA69408822F47F4200F1FF306E
:100DE00022F0100242EA002242F0100218BF012154
:100DF000DA61DDE745EA0262034B42F40032B4E710
:100E000040F20122E1E700BF00B002400102010010
:100E1000090002000A0002004B3401086534010891
:100E20009E33010801020200024B1B6858680368E8
:100E30005B6918473826012070B5044625460A4BE1
:100E40000C30002660602672667245F8203B6022F6
:100E5000294608F023FD04F55A63EE6024359D42CF
:100E6000FBD1204670BD00BF1C3E01080120704729
:100E700014207047142303FB01000830704714232B
:100E800003FB010008307047012070474FF4886071
:100E900070474FF4886303FB0100083070474FF43C
:100EA000886303FB01000830704701207047102061
:100EB000704700EB01100830704700EB011008305C
:100EC0007047084601F01ABC10B5034B0360044696
:100ED00007F021FB204610BDD43E010810B50446A2
:100EE000FFF7F2FF20461C2111F05AF8204610BDF2
:100EF00010B5034B0360044607F00DFB204610BD00
:100F0000A03E010810B50446FFF7F2FF20464FF45B
:100F1000896111F045F8204610BD000010B5034B63
:100F20000360044607F0F7FA204610BD6C3E010846
:100F300010B50446FFF7F2FF2046182111F030F8F3
:100F4000204610BD10B5084B0360044600F2744003
:100F5000FFF7BAFF04F12C00FFF7CAFF04F11400F9
:100F6000FFF7DCFF204610BD083F010808B5024826
:100F7000FFF7E8FF08BD00BFF00F002010B50446E2
:100F8000FFF7E0FF20464FF4BF6111F009F820465B
:100F900010BD00002DE9F34100F0F8FF054600F018
:100FA000F9FF0024014623462846224600940EF00D
:100FB0000FF9254B254A264D1A60204602F06EFA9D
:100FC00024480EF06DF82B68BFF35B8FDB0735D438
:100FD000284610F0E7FF88B31F4C204B236004F233
:100FE0009C4604F1140004F12C0804F2744760607C
:100FF000C4F80880E760266107F08EFA184B636139
:10100000404607F089FA174BE362384607F084FA46
:10101000154BC4F8743404F5926002F0BBFA224612
:1010200004F59261304602F0ABFA304601F066FBFF
:101030000E4811F001F8284610F0C0FF0C4802B02D
:10104000BDE8F041FFF75EBC94260120B801002006
:10105000EC0F002008000020F00F0020083F0108DE
:101060006C3E0108A03E0108D43E01086D0F000847
:10107000340100200148FFF757BC00BF34010020B5
:1010800070B5254E254C264D264B23603046FFF784
:10109000D3FE28460EF0FCFE234B2448DC600022E1
:1010A0004FF48071C3E9121221491A86C3E91A125A
:1010B000204983F85820C3E91E011F49C3F8801056
:1010C0001E491F480B60F021C3E90422C3E9062230
:1010D000C3E90822C3E90A22C3E90E22C3E91022A8
:1010E000C3E91422C3E917225A6683F870205A67AD
:1010F000C3E9016501801348018013484FF4A071D2
:1011000001801248018012490A70012283F83420BC
:10111000104A1A6070BD00BF48020020E80F00208E
:10112000BC010020983001083401002000000101BA
:1011300001000001000450001A00140038260120AC
:101140002C260120322601202E26012034260120C3
:1011500030260120303D01080148FFF723BD00BFC4
:1011600048020020034B902283F85A2383F8582327
:10117000704700BF00E100E0094A0A49D3680A4805
:10118000C3F30A03013B9BB20B801169C1F30A014F
:10119000013901801364536B43F0010353637047BB
:1011A00000680140EA150020E8150020014BD3F843
:1011B000AC00704700680140024B0122C3F8AC103C
:1011C0005A6270470068014070B5044607F0A1FC00
:1011D00023689D6E0AF0F4FD01462046A847236867
:1011E000054AD3F88C502046AC460023BDE8704039
:1011F000A2F51631604700BF00B004D007F070BC04
:1012000090F84B3013B1024B01221A7007F074BCF6
:10121000EC15002007F02EBC07F09DBD034B4FF0EE
:1012200080629A604FF080729A60704700E100E03F
:10123000084B4FF08062C3F88820BFF34F8FBFF395
:101240006F8F4FF08072C3F88820BFF34F8FBFF3CA
:101250006F8F704700E100E038B5184C23685BB32E
:10126000174B184A1B6C11888B4216D1164B1988E4
:1012700003F0BCFE236893F86A200025013283F84E
:101280006A2083F87C50FFF73BFC206808F0CAF91D
:101290002846BDE83840FFF777BA03F0A7FE246878
:1012A000236820461B6A9847012384F87C3000207D
:1012B000BDE83840FFF792BA38BD00BF382601209C
:1012C00000680140EA150020E815002007B5064B2C
:1012D000ADF806001B68054801220DF1060104F077
:1012E000D3FB03B05DF804FB0C0000203416002093
:1012F00007B51A4D1A4C0421284603F07FF803461F
:1013000040B94C228DF807200DF1070102462068F4
:1013100005F059F90821284603F070F8034640B952
:1013200052228DF807200DF107010246206805F0D2
:101330004AF90C48012103F061F8012809D1412341
:101340008DF80730002320681A460DF1070105F0DB
:101350003AF9012005F048F8CDE700BF0018024037
:10136000F41500200000024030B595B01022002195
:101370000AA811F04AF81422002103A811F045F838
:1013800000241D4B01941A6C42F080521A641B6CAD
:1013900003F080530193019B184B02941A6842F4A6
:1013A00040421A601B6803F4404302930122029BEF
:1013B0004FF48033CDE9082302254FF48003CDE9B3
:1013C0000E5308214FF4A873CDE9101308A8042385
:1013D0001393129503F028FE0F23CDE903354FF444
:1013E000A0504FF48053CDE90603052103A80594CE
:1013F00003F0F6FF15B030BD003802400070004029
:1014000080B59AB002F07AFDFFF7AEFF14220021FA
:101410000DA8002410F0F9FFC34B00941A6BC348C9
:10142000C34D42F010021A631A6B02F010020092D0
:10143000009A01941A6B42F020021A631A6B02F0B0
:1014400020020192019A02941A6B42F080021A6300
:101450001A6B02F080020292029A03941A6B42F015
:1014600004021A631A6B02F004020392039A0494B2
:101470001A6B42F001021A631A6B02F00102049225
:10148000049A05941A6B42F002021A631A6B02F076
:1014900002020592059A06941A6B42F040021A6302
:1014A0001A6B02F040020692069A07941A6B42F0F9
:1014B00008021A631B6B03F00803079322463C21C2
:1014C000079B02F0A1FF9B482246042102F09CFFEB
:1014D000224699484FF4405102F096FF01264FF002
:1014E00003083C239148CDF840800DA902274FF016
:1014F000040ACDE90D360F9402F09CFE8D480F943E
:101500000DA9CDE90DA6109702F094FE4FF44053BB
:1015100089480DA9CDE90D36CDE90F4702F08AFEC5
:1015200086480F940DA9CDE90D6402F083FE0DA944
:101530000C2383480F96CDE90D3402F07BFE8148E1
:10154000814B036002F06CFD804A814B2C62C5E93F
:10155000002328464FF48043C5E90434C5E902441A
:10156000C5E9064403F050F91021284603F08CFB2E
:101570002146284603F0A7FB7648774984624FF45A
:101580008273C0E900134FF400751823C0E90653B5
:101590000A23724DC362C0E90244C0E90444C0E9B1
:1015A000084404F015FA6E4B0D974FF0100CC5E986
:1015B00000364023C5E904C34FF4C073C5E90634BF
:1015C0004FF40063C5E908344FF40053AB620DA932
:1015D00007232846CDE90E3ACDE910384FF0080927
:1015E000C5E9024ACDE9127704F0EEF84FF6FF7232
:1015F00009A92846CDE90A96089409960C9404F0A6
:1016000003F9304602F0A6FC4FF6FF7209A92846FE
:10161000CDE90979CDE90B6404F0F6F84FF6FF72D5
:1016200009A92846CDE90989CDE90BA404F0ECF815
:101630004FF40C730893089B0C934FF6FF7209A9A3
:101640002846CDE909A90B9604F0DEF840F26A516C
:10165000284604F0F7F8342221460DEB020010F082
:10166000D4FE404D404B2C61C5E900340923C5E947
:1016700005361D2340F20D1EC5E9073840F243131D
:10168000C5E909E3284640F2471340F21718C5E9B7
:101690000B83C5E90244AC8685F8364003F0AEFB07
:1016A000FF21F022CDE912144FF4806A05214FF496
:1016B000A073CDE90E24CDE914A1CDE916420DA900
:1016C00022462846CDE91037284D18930D94ADF8E1
:1016D00064408DF8664003F05CFC254B2B601B6872
:1016E00098472B68234DDB689847234B2846C5E96C
:1016F0000034C5E90274C5E90A47C5E90C4402F0A3
:101700009FFC3146284602F051FDFEF780FF04F0B1
:10171000FBFD1A4A3146484604F01AFF184B194A95
:101720001860214630E000BF00380240001002403F
:101730003417002000080240000C02400000024064
:1017400000180240C817002000300240005C004032
:10175000A086010034160020005001400016002031
:10176000400100A08C16002000680140F015002008
:10177000140000208817002000B00240143F010828
:10178000F4150020503F0108074804F0E9FD074B1D
:10179000074A18602146074804F0E2FD064B18602E
:1017A00004F0C4FDFEE700BFF1120008FC150020A4
:1017B0002C3F010813060008F815002070477047F9
:1017C0007FB5094B8DF817201B6802930DF11702A6
:1017D0000123009201930A460146044803F0BCF835
:1017E00007B05DF804FB00BF100000203417002094
:1017F0007FB500238DF81730084B1B6802930A460B
:1018000001230DF11701009101930146044803F0F3
:1018100033F99DF8170007B05DF804FB10000020B5
:10182000341700201FB5084C24680092CDE901341C
:101830000A4601230146054803F01EF9003818BF87
:10184000012004B010BD00BF10000020341700209C
:1018500002F080BB10B5064C00222046042102F0A5
:10186000D3FD20460122BDE81040042102F0CCBD8A
:101870000008024038B50B4D044601220A484FF4D7
:10188000005102F0C1FD00220421284602F0BCFDF7
:101890002046FFF71BFD28460122BDE83840042101
:1018A00002F0B2BD00080240000C024038B50B4DFA
:1018B000044600220A484FF4005102F0A5FD002220
:1018C0000421284602F0A0FD2046FFF7FFFC284631
:1018D0000122BDE83840042102F096BD0008024014
:1018E000000C0240F7B5144E144F05460C46304626
:1018F0000022042102F088FD00224FF400513846F6
:1019000002F082FD2846FFF7E1FC0D4B0D481B68F5
:10191000224601A904F055FA384601224FF400513D
:10192000019C02F071FD30460122042102F06CFDA1
:10193000204603B0F0BD00BF00080240000C02408A
:101940000C0000203416002002F004BB0268034B98
:101950009A4201D102F0ECBA704700BF001000407B
:101960007047000082B00E4B00220092596C41F487
:1019700080415964596C01F48041009100990192B1
:10198000196C41F0805119641B6C03F08053019372
:10199000019B0F216FF0010002B002F001BB00BFFC
:1019A000003802400268094B9A4282B00BD10023F2
:1019B0000193074B1A6B42F480521A631B6B03F4BA
:1019C00080530193019B02B0704700BF003002407A
:1019D0000038024007B50F4B02689A4216D1002228
:1019E000A3F5F0430192196B41F4000119631B6BDD
:1019F00003F40003019305215A20019B02F0D0FA61
:101A00005A2003B05DF804EB02F0FCBA03B05DF8B5
:101A100004FB00BF00B002402DE9F043044689B04A
:101A20001422002103A810F0F0FC2268244B9A42F3
:101A300043D1244C244800250095236B43F0040334
:101A40002363236B03F004030093009B0195236B36
:101A500043F001032363236B03F001030193019B14
:101A60004FF012094FF400734FF0010803270426CA
:101A700003A9CDE90339CDE90587079602F0DAFB22
:101A80004FF480731148079603A9CDE90339CDE9D6
:101A9000058702F0CFFB0295236C43F40003236417
:101AA000236C03F400030293029B236A43F40003B4
:101AB0002362236A23F40003236209B0BDE8F083A4
:101AC000005C004000380240000802400000024074
:101AD000F0B599B004461422002107A810F095FC37
:101AE00030220DEB0200002110F08FFC22685E4BCB
:101AF0009A4240F0B78008230C93C023109304232C
:101B000012930CA84FF40033159303F031FD08B184
:101B1000FFF726FF554B5648002400945A6C42F0BC
:101B200080625A645A6C02F080620092009A0194BA
:101B30001A6B42F020021A631A6B02F02002019223
:101B4000019A02941A6B42F001021A631A6B02F0B6
:101B500001020292029A03941A6B42F002021A6383
:101B60001A6B02F002020392039A04941A6B42F079
:101B700040021A631A6B02F040020492049A059420
:101B80001A6B42F004021A631A6B02F00402059207
:101B9000059A06941A6B42F008021A631B6B03F055
:101BA0000803069302250E26069B0B964FF48063CE
:101BB00007A9CDE90735CDE9094502F03BFB41F620
:101BC00058032C480B9607A9CDE907350927CDE91D
:101BD000094502F02FFB032327480B9707A9CDE9FE
:101BE0000735CDE9094502F025FB4FF47063224823
:101BF0000B9607A9CDE90735CDE9094502F01AFB97
:101C00004FF40C631D480B9607A9CDE90735CDE9C4
:101C1000094502F00FFBC02319480B9607A9CDE92F
:101C20000735CDE9094502F005FB082315480B9659
:101C300007A9CDE90735CDE9094502F0FBFA4FF4D4
:101C4000A0530E480B9707A9CDE90735CDE9094503
:101C500002F0F0FA58202246052102F0A1F958209E
:101C600002F0D0F919B0F0BD006801400038024020
:101C7000001402400000024000040240001802402C
:101C800000080240000C024010B5044688B014223F
:101C9000002103A810F0B9FB2268144B9A4223D10B
:101CA00003F56843002101915A6C114842F48012F7
:101CB0005A645A6C02F480120192019A02911A6BD2
:101CC00042F020021A631B6B03F020030293029B75
:101CD0004FF4607202230321CDE903230523CDE9EC
:101CE000061303A902F0A6FA08B010BD0050014087
:101CF000001402402DE9F04186B0002303932B4BE2
:101D00001C68002C4FD14FF00108C3F80080284B0D
:101D100000949A6B274842EA08029A639B6B03EA95
:101D200008030093022703260C25009B01A94FF608
:101D30003F03CDE90137CDE9046502F07BFA1E4887
:101D4000059501A9CDE90187CDE9034602F072FAB4
:101D500048F233131948059501A9CDE90137CDE9BA
:101D6000034602F067FA4FF683731548059501A9FB
:101D7000CDE90137CDE9034602F05CFA4CF203737A
:101D80001048059501A9CDE90137CDE9034602F0D8
:101D900051FA60230C48059501A9CDE90137CDE939
:101DA000034602F047FA06B0BDE8F081D0170020E4
:101DB00000380240001402400008024000180240AF
:101DC00000100240000C02400004024030B5014601
:101DD00089B00022362002F0E3F8362002F012F932
:101DE0000025154B02951A6C144C42F010021A642F
:101DF0001B6C03F01003029301A903A8029B03F0DC
:101E000099FB03F087FB0E4B236040F2E733E3605E
:101E100040000C4BB0FBF3F00138606020462561B8
:101E2000A56004F09DF920B9204604F069F809B0D6
:101E300030BD0120FBE700BF00380240D41700206E
:101E40000010004040420F007047FEE7FEE7FEE74B
:101E5000FEE77047014804F091B800BFD417002096
:101E6000014803F039B800BF8C160020014802F089
:101E700013B900BF8817002013B50B4C206804F07D
:101E800003FC012809D841238DF807302068C823B6
:101E900000220DF1070104F096FB012002B0BDE81D
:101EA000104002F0C1BA00BFF415002001207047B5
:101EB00008B510F04DFB162303604FF0FF3008BD4E
:101EC00008B510F045FB16230360FEE770B50D461C
:101ED00014460E46731B9C4201DC204670BDAFF3D6
:101EE000008006F8010BF5E770B50D4614460E4666
:101EF000731B9C4201DC204670BD16F8010BAFF34A
:101F00000080F5E74FF0FF3070474FF400534B600F
:101F10000020704701207047002070470A4A11686E
:101F200008B5034609B909491160106869460344B8
:101F30008B4206D910F00CFB0C2303604FF0FF30EE
:101F400008BD1360FCE700BF1C180020B029012069
:101F5000704710B50421044610F022F8204610BD49
:101F600008B503290FD8DFE801F00A02060A01F0DC
:101F7000E1FA406808BD01F0DDFA8068FAE701F097
:101F8000D9FA0068F6E70020F4E70000004870473F
:101F9000883F01080920704713B5002451B1036838
:101FA00001948DF8034001AA9C680DF10303A0473A
:101FB00002B010BD0846FBE7C0897047008A704731
:101FC000C088704780887047807A00F07F00704733
:101FD000807AC00970470020704700009FED010A19
:101FE000704700BF00000000704710B5082104468C
:101FF0000FF0D6FF204610BD7047704700F598736C
:102000000868496803C3704770477047416070476C
:1020100070477047064BC0F84C310023C0F8503170
:1020200000F5A273C0F84801C0F84031704700BF06
:1020300055250008012303727047704770477047A9
:10204000704738B5054640680368DB699847044621
:1020500004B938BDA188AB89C91A236820461B6B17
:1020600009B29847A469F3E710B4C26841685410F4
:10207000034601EB6200D20748BF0A599B685DF82E
:10208000044B48BFD35818470346406830B19A689C
:102090001AB9D86800F0010070470120704710B5E8
:1020A0000C2104460FF07CFF204610BD10B5142112
:1020B00004460FF075FF204610BD10B510210446F0
:1020C0000FF06EFF204610BD10B5102104460FF032
:1020D00067FF204610BD10B54FF4AE7104460FF0F7
:1020E0005FFF204610BD10B509F06AFE0368BDE829
:1020F0001040DB6B184710B509F062FE0368BDE8BD
:1021000010405B6B184710B509F05AFE0368BDE834
:1021100010405B6B1847000013B50446807A637A61
:102120000130C0B29842A07205D901232372002366
:10213000A37202B010BDB4F90C2000210BF074FCA6
:10214000C30707D500284FF6FF73C8BF012313FA52
:1021500080F000B2144AE08112880023ADF802300A
:1021600083B2D21AADF80020228A20829B1AADF8E1
:1021700004300E4B1B88ADF8063009F021FE0368D1
:1021800002AA1B6C12E906009847A37A012BD0D152
:10219000074B1B78002BCCD009F012FE02B0BDE833
:1021A000104009F013BE00BF2C2601202E2601206E
:1021B0003626012037B50546807A6B7A0130C0B2E9
:1021C0009842A87205D901232B720023AB7203B089
:1021D00030BDB5F90C20B5F90E4000210BF024FC00
:1021E000C30707D500284FF6FF73C8BF012313FAB2
:1021F00080F000B2AB7AE881041B012BA4B206D1B7
:10220000174B1B781BB109F0DBFD09F0DFFD154A08
:1022100000231288ADF80230EB891A445B42ADF816
:102220000430114BADF800201B88ADF8063009F0E2
:10223000C7FD036802AA12E906001B6C984768688C
:102240000368DB6998470546002DC0D0A9882B6834
:10225000214428461B6B09B29847AD69F4E700BFDB
:10226000362601202C2601202E26012010B50446FA
:10227000D0F8400158B10368DB68984738B1D4F80A
:10228000400103689B6898470023C4F8403110BDA3
:102290002DE9F14FD0E9556A0746B06803681B6A1B
:1022A0009847B0F5886F05D2484B494AA321494861
:1022B0000FF0A4FE706803681B6A98470F2803D8C4
:1022C000454B434AA421F2E7F06803681B6A98472C
:1022D0000F2803D8414B3E4AA521E8E709F070FDDD
:1022E000DFF80491043009F0B8FDD9F8000010B10E
:1022F0000368DB689847D9F8000010B103681B68D1
:102300009847DFF8E880D8F8000010B103685B69EF
:102310009847D7F83C0110B103685B689847D8F834
:10232000000010B103681B689847D7F83C0110B152
:1023300003689B689847F068036800215B6A9847C8
:10234000274B03604FF4A0530381264B1B884FF0AB
:10235000000B80F80AB05B420446C0F804B0A0F855
:102360000EB08381B068036859465B6A984705469A
:1023700001F0D0F97068036859465B6A98472946AE
:10238000064601F069F9331DC7F83C61CAF8083008
:102390002B68C6F808A02846DB68C9F80040C8F8D2
:1023A0000050EE639847336830461B6898472146D3
:1023B00028460BF033FB236820461B6998472368A7
:1023C0005B69204601B0BDE8F04F1847BF340108F3
:1023D0004D35010832360108793601081C370108ED
:1023E000E44001082C2601207826012074260120D3
:1023F0002DE9F14FD0E955BA0746DBF8080003682C
:102400001B6A9847B32805D8494B4A4AA3214A4832
:102410000FF0F4FDDBF8040003681B6A98470F28EF
:1024200003D8464B434AA421F1E7DBF80C000368CC
:102430001B6A9847132803D8414B3E4AA521E6E77B
:1024400009F0BEFCDFF80491043009F006FDD9F86C
:10245000000010B10368DB689847D9F8000010B19C
:1024600003681B689847DFF8E880D8F8000010B1CF
:1024700003685B699847D7F83C0110B103685B6853
:102480009847D8F8000010B103681B689847D7F840
:102490003C0110B103689B689847DBF80C000368A7
:1024A00000215B6A9847274B03604FF4A0530381D8
:1024B000254B002686721B8846600446C68106822C
:1024C0008381DBF80800036831465B6A984705465C
:1024D00001F0A4F8DBF80400036831465B6A984712
:1024E0002946064601F074F8331DC7F83C61CAF866
:1024F00008302B68C6F808A02846DB68C9F80040F9
:10250000C8F80050EE639847336830461B68984718
:10251000214628460BF082FA236820461B6998471B
:1025200023685B69204601B0BDE8F04F184700BF43
:10253000BF340108BF370108323601087936010877
:102540001C370108084101082C26012078260120AB
:10255000742601202DE9F14FD0E9556A0746B0688D
:1025600003681B6A9847B32805D8444B444AA32103
:1025700044480FF043FD706803681B6A98470F28B2
:1025800003D8414B3E4AA421F2E7F06803681B6A76
:1025900098470B2803D83D4B394AA521E8E709F0B5
:1025A0000FFCDFF8F090043009F057FCD9F8000078
:1025B00010B10368DB689847D9F8000010B10368D0
:1025C0001B689847DFF8D080D8F8000010B1036886
:1025D0005B699847D7F83C0110B103685B6898477E
:1025E000D8F8000010B103681B689847D7F83C0181
:1025F00010B103689B689847F068036800215B6A24
:1026000098474FF0000B224BC0F804B0044680F806
:1026100008B00360B068036859465B6A984705468E
:1026200000F0FCFF7068036859465B6A98472946CA
:10263000064600F0CDFF331DC7F83C61CAF80830EC
:102640002B68C6F808A02846DB68C9F80040C8F81F
:102650000050EE639847336830461B689847214620
:1026600028460BF0DBF9236820461B69984723684E
:102670005B69204601B0BDE8F04F1847BF34010840
:10268000A338010832360108793601081C370108E1
:10269000C04001087826012074260120F8B50446C0
:1026A00017460E4609F076FC104B0025C4E9557616
:1026B0000F4E1C60C4E953550E4B306823600E4B1F
:1026C000C4E95135036801219B68C4E94F55984717
:1026D000284600F0E3FE336893F858200AB1D86C1E
:1026E00000B998680EF010FF2046F8BD842601203E
:1026F000382601206C40010854400108064BC0F800
:102700004C310023C0F8503100F5A273C0F84801E5
:10271000C0F84031704700BF55250008064BC0F88F
:102720004C310023C0F8503100F5A273C0F84801C5
:10273000C0F84031704700BFF1230008064BC0F8D5
:102740004C310023C0F8503100F5A273C0F84801A5
:10275000C0F84031704700BF91220008406A7047BE
:10276000806A704770478A880B8810B5D20A4C88F7
:10277000C1699BB251F8220043EA0443184410BDDA
:1027800010B50446BAB1107B68B1537BD27A1B02F4
:1027900003F4E0631A43236A03EB82031A888A4234
:1027A00002D193F9020010BD05D8013880B204337C
:1027B0000028F3D1F7E70020F5E710B52C210446F7
:1027C0000FF0EEFB204610BD30B58BB00446BDF8CF
:1027D00060500895BDF85C5007959DF850500695DF
:1027E0009DF84C5005959DF8485004959DF844502F
:1027F00003959DF8405002959DF83C500195BDF819
:10280000385000950AF064FD064B2360159BE36188
:10281000169B2362199B63621A9BA36220460BB02E
:1028200030BD00BF2C4101080020704781807047F7
:10283000C180704701817047418170477047704780
:1028400070477047704710B4C4880368121B8488AF
:102850005B6D091B12B25DF8044B09B218474FF6C5
:10286000FF7383814FF0FF3303621368C36110600D
:1028700070477047704770477047704770477047A0
:10288000704730B4C26844685510034604EB6200D8
:10289000D20748BF62599B6830BC48BFD35818471D
:1028A0000346406830B19A681AB9D86800F0010050
:1028B00070470120704710B5102104460FF070FBDF
:1028C000204610BD10B5B02104460FF069FB20462C
:1028D00010BD90F8252012B103685B691847704756
:1028E00090F825201AB190F8242002B118607047A2
:1028F0006C30884208B505D109F062FABDE808409D
:10290000FFF71CBF08BD70B5036804461B6B154676
:1029100098472368294620465B6BBDE870401847FE
:10292000F7B504460AF0CEFE344B2360344B002248
:10293000C4E910324FF48073A4F86430FF2384F8A4
:10294000663040F20113A4F890302E4BE3664FF648
:10295000FF73A4F89A30A4F89C3084F89E302A4B78
:10296000E26304F14005C4E92834284B226611468D
:102970002846C4E91222C4E91422C4E91622C4E993
:102980001C22C4E91E22C4E92022C4E92222A26634
:10299000C4F8942084F89820C4E92A32FFF7B3FFE2
:1029A0002846F021FFF746FF28464FF4A071FFF7B5
:1029B00043FF271D4FF07F4304F16C06A3662946B1
:1029C000384605F0BBFD3046C7221421FFF79BFFB8
:1029D000032301AA69463046ADF80030ADF8043053
:1029E00007F054FB04F1A0033846C4F89430314694
:1029F00005F0A4FD204603B0F0BD00BFAC410108C6
:102A000080460108E846010894410108F1280008C1
:102A1000806A704730B5036885B06D460181D3F890
:102A20008430014604462846984795E807003C3420
:102A300084E8070005B030BD30B5036885B06D4649
:102A40004181D3F88430014604462846984795E8EA
:102A500007003C3484E8070005B030BD0022028046
:102A600042808280C280704780F83610704770B50F
:102A7000036804461B6B1546984723682946204681
:102A80005B6EBDE87040184700207047806C70474F
:102A900070477047704770477047704730B4C268DE
:102AA00044685510034604EB6200D20748BF6259E0
:102AB0009B6830BC48BFD35818470346406830B1C4
:102AC0009A681AB9D86800F0010070470120704771
:102AD00090F82D3080F8603070470146383091F81A
:102AE0002C3013B1363107F00ABC3431FBE710B596
:102AF000642104460FF054FA204610BD10B54C2155
:102B000004460FF04DFA204610BD10B510210446C2
:102B10000FF046FA204610BD10B54FF4757104460B
:102B20000FF03EFA204610BD08B5FFF7D2FE08BDF3
:102B300010B50446006B50B10368DB68984730B1AC
:102B4000206B036821469B68BDE81040184710BD04
:102B50000B7970B590F82C6004460D460BB916B190
:102B600070BD002EFCD0B3FA83F35B0984F82C30DF
:102B700023682046D3F88C309847236820465B6949
:102B80009847002EECD02B79012BE9D12368204601
:102B9000D3F88830BDE8704018470000036870B56E
:102BA0005E6B124B1B6804468DB22BB9104B114A59
:102BB0006C2111480FF022FA1049828D0988914248
:102BC00003D80F4B0B4A6D21F3E713F812200D4B7E
:102BD0001B6853F8220003681B6B9847291A334679
:102BE000204609B2BDE87040184700BF8826012082
:102BF00075390108B7390108F23901088C2601201E
:102C0000393A01089026012000F5BA738B4210B5BD
:102C1000044609D109F0D4F8FFF780FD2368204667
:102C2000DB6ABDE81040184710BD00224FF0FF31AD
:102C3000C0E90021826070470B882DE9F04183864E
:102C40001388B0F90850C3860446104690460CF02D
:102C5000D3FAB4F90A30074603EBD3734046C3F303
:102C60004F060CF0FDFA05EBD575C5F34F0500EBEB
:102C7000D07007EBD777A6EB6002A5EB670104F1F4
:102C8000380012B209B2FFF73EFE23682046D3F89F
:102C90008C30BDE8F041184770B504461D46BDF9BB
:102CA0001060FFF730FE2368294620469B6B98474B
:102CB000236831462046DB6BBDE8704018470000B2
:102CC0000022C0E90122C0E90322C0E90522C0E9CF
:102CD00007224FF480728284014A0260704700BF6D
:102CE000E041010838B5262204460D4600210FF0C8
:102CF0008CFB2046FFF7E4FF064B23602B88E38420
:102D0000FF23204684F82830294607F0F8FA2046A9
:102D100038BD00BF5C47010810B5262204460021DB
:102D20000FF073FB2046FFF7CBFF0A4B23600A4BE3
:102D3000A3624FF6FF73A3854FF47F020023C4E91B
:102D40000C3223874FF0FF32C4E91023E36320469F
:102D500010BD00BFF0450108444001082DE9F04FC7
:102D6000044695B0264600250AF0ACFCD14BE5633D
:102D700046F8403B2622294630460FF046FB3046B7
:102D8000FFF79EFFCC4B2364FF2384F8663004F1E9
:102D90006C034FF6FF77184604F1980A12A9A5664E
:102DA000079304F1C409ADF84870FFF79BFF12A91F
:102DB000504604F1F008ADF84870FFF793FF12A9F0
:102DC0004846ADF84870FFF78DFF12A94046ADF8B0
:102DD0004870FFF787FF04F58E7312A91846089311
:102DE000ADF84870FFF77EFF04F5A47312A91846EA
:102DF0000993ADF84870FFF775FF04F5BA730A93AD
:102E00004FF47F43A4F8A03140F201134FF0FF329A
:102E100004F5D67BA4F89831A84BC4F8A821C4F8CF
:102E2000743112A95846C4E95E55C4E96055C4E935
:102E30006255C4E96455C4F89C51C4F8A451ADF876
:102E40004820FFF74FFF59460A9805F077FB04F535
:102E5000EC7312A904F5017B18460B93ADF848708A
:102E6000FFF740FF5846FFF757FF04F51373184666
:102E7000934F0393FFF750FF04F52673C4F84C7289
:102E80001846C4F894520493FFF746FF04F53973CB
:102E9000C4F898721846C4F8E0520593FFF73CFF57
:102EA00004F54B7318460693FFF736FF854BC4E9CC
:102EB000F134854BC4E9F3354FF4A0732A4630460C
:102EC00000932946F023271DFFF7E6FE4FF07F43CE
:102ED000A3663146384605F031FB2A460798294655
:102EE000FFF711FD08230798ADF8483012A907F045
:102EF00006FA079984F89150384605F01FFB2A46D8
:102F000050462946FFF7FFFC0723504612A9ADF8AB
:102F1000483007F0F4F95146384684F8BD5005F0C2
:102F20000DFB2A4648462946FFF7EDFC0623484696
:102F300012A9ADF8483007F0E2F94946384684F85E
:102F4000E95005F0FBFA2A4640462946FFF7DBFC2C
:102F50004FF00509404612A9ADF8489007F0CFF9A7
:102F60004146384684F8155105F0E8FA2A46089893
:102F7000DFF870812946FFF7C6FC4FF0040308987C
:102F8000ADF8483012A907F0BAF90899384605F0AB
:102F9000D5FAA02209985F21FFF7B5FC4FF0020394
:102FA0000998ADF8483012A907F0A9F909993846EF
:102FB00005F0C4FA0A98ADF8445012AA11A9ADF868
:102FC0004850FFF739FE04F57173C4F8A43120238B
:102FD0004FF48D720A98C4F8B051CC210093FFF7DA
:102FE0005BFE0A99384605F0A9FA14220B983F2196
:102FF000FFF789FC4FF0010A0B98ADF848A012A921
:1030000007F07DF90B99384605F098FA8422584666
:103010003621FFF778FC0CAE2C4BC4F834325946FD
:103020003046A4F8385206F02BFD96E8070004F568
:10303000107383E807000923584612A9ADF84C30F5
:10304000CDF8488006F0C4FF5946384684F8295226
:1030500005F074FA4FF494720398DFF88CB056219F
:10306000FFF751FC4FF07F43C4F87C32D4F84C3268
:103070000399D3F88430A4F880523046984796E8F4
:10308000070004F5227383E8070004F55D730793D6
:10309000DBF800302BB90E4B0E4A60210E480EF0C3
:1030A000ADFF0E4B1B88022B20D80D4B094A612126
:1030B000F4E700BF9043010880460108D8420108A8
:1030C0004842010878430108092C00081500FFFF59
:1030D00075390108773A0108F23901088C26012078
:1030E000393A01084440010888260120524B022148
:1030F000186800F00FFA14210346504A07980BF0A5
:10310000C1FF079AC4F89422039806F041FF039880
:10311000ADF84C9012A9CDF8488006F059FF0399FC
:10312000384605F00BFA049840F211123521FFF7EA
:10313000EAFBD4F898320499D3F88430A4F8CC523E
:103140004FF07F42C4F8C8223046984796E80700FF
:1031500004F5357383E80700DBF8003004F5677980
:10316000002B98D0364A1388032B9ED9324B03216B
:10317000186800F0CFF9314A0346142148460BF095
:1031800081FF0498C4F8E09206F002FF4FF00403B8
:103190000498ADF84C3012A9CDF8488006F018FF1D
:1031A0000499384605F0CAF9059840F211122946EB
:1031B000FFF7A9FB4FF07F430599C4F8143330465D
:1031C000A4F8185306F05CFC96E8070004F5487371
:1031D00083E807000598CDF8488012A9ADF84CA007
:1031E00006F0F6FE0599384605F0A8F906984FF462
:1031F00094722946FFF787FB4FF07F430699C4F886
:103200005C333046A4F8605306F03AFC96E80700B9
:1032100004F55A7383E807000698CDF8488012A990
:10322000ADF84C5006F0D4FE3846069905F086F904
:10323000204615B0BDE8F08F94260120C23A01085F
:103240008C2601207047000030B5174D2C6814F013
:1032500001048FB0BFF35B8F22D128460EF0A2FE8F
:10326000F0B13F230993114B0893114B07930123AE
:10327000CDE9054304930423CDE902430F230D490F
:10328000009319221223CDE90B440B480A940194B0
:10329000FFF79AFA09480EF0CFFE28460EF08EFE90
:1032A00005480FB030BD00BF20180020E8550108C8
:1032B0000C560108985301082418002045320008D4
:1032C0007047000030B5164D2C6814F001048FB023
:1032D000BFF35B8F21D128460EF064FEE8B13F2397
:1032E0000993104B0893104B07930123CDE9054335
:1032F00004930423CDE9024314230C4900931022C4
:10330000CDE90B440A480A940194FFF75DFA094895
:103310000EF092FE28460EF051FE05480FB030BD6B
:1033200050180020EC55010810560108F854010807
:1033300054180020C13200087047000030B5164D07
:103340002C6814F001048FB0BFF35B8F20D12846A6
:103350000EF028FEE0B13F230993104B0893104B69
:10336000104911480A940122CDE906430423CDE90E
:10337000033228230093CDE90B44CDE901440594A1
:10338000FFF722FA09480EF057FE28460EF016FE07
:1033900005480FB030BD00BF801800200856010856
:1033A00014560108D8550108841800203933000844
:1033B00000207047002070470EB403B503AB002116
:1033C00053F8042B019309F0ABFD02B05DF804EB58
:1033D00003B070470CB407B504AB53F8042B01934A
:1033E00009F09EFD03B05DF804EB02B070470000E9
:1033F000436C10B5044673B3038F2BB9184B194AAD
:10340000C52119480EF0FAFDC38E00EB43035B8C17
:103410000BB30BF08EF8238F012B03D8134B144AF8
:10342000CB21EEE7E28E531C9BB2092B194688BFD5
:10343000A3F10A0104EB410140F63F10498C81429F
:1034400009D10A2B04EB420228BF002304EB4303FB
:10345000508C588451842046BDE810400AF06CBF5F
:10346000C53A0108CE3A0108793B0108C33B01087F
:10347000D13B01080AF027BF10B586B002AC84E842
:1034800006001A460AAB05930193099B0093214657
:10349000089B08F033F806B010BD000038B518BB23
:1034A000124B13481C681349B4B1226822440260CD
:1034B000626822440A60A26814440F4B00221A80FA
:1034C00000F038F8054600F033F80C4B1C600C4B4C
:1034D0001D600C4B188007E00B4B03600B4B0B601F
:1034E0000B4B1C68002CE8D138BD00BFBC18002075
:1034F000B4180020B0180020B81800208826012039
:10350000902601208C2601204056010818560108FB
:10351000C8560108044B1B6853F82100034B1B6875
:1035200003EB4000704700BFB0180020B418002023
:103530000A20704700487047C018002010B5FFF7F8
:10354000C1FE044C2060FFF7F9FE6060FFF77CFECF
:10355000A06010BDC0180020704710B54FF4AE71C8
:1035600004460EF01DFD204610BD10B50446D0F8EF
:10357000580100F015F82046BDE8104008F0CABC1C
:1035800010B50446FFF78AF8014B2360204610BDB2
:10359000C843010800225F21026081808260704779
:1035A000036801330360704781807047B0F90400FD
:1035B0007047704704387047704710B510210446B3
:1035C0000EF0EEFC204610BDA0F10400F5E700006F
:1035D00000228260024A026018324260C160704775
:1035E0001C4401087047D0F8B0300133C0F8B03047
:1035F0007047000010B5034B03600446FFF73FF926
:10360000204610BD4444010810B50446FFF7F2FF00
:103610002046B4210EF0C4FC204610BD10B504466F
:10362000FFF77EF9034B23600023C4F8B030204637
:1036300010BD00BF44440108FFF722B970470438A9
:103640007047704710B5102104460EF0A9FC2046C3
:1036500010BDA0F10400F5E700228260024A02607A
:1036600018324260C1607047784401088068FFF7F3
:103670009BBF8068FFF79ABFB0F94C21B0F9503179
:10368000B0F9DC1113448B4215DBB0F9E0310B4487
:103690009A4210DCB0F94E31B0F95221B0F9DE1186
:1036A0001A448A4207DBB0F9E2210A449342CCBFB4
:1036B00000200120704700207047B0F92C14C06B27
:1036C000FFF7D4BF10B5034B03600446FFF7E4F9DE
:1036D000204610BDA044010810B50446FFF7F2FFD4
:1036E00020464FF488610EF05BFC204610BD0000C0
:1036F00010B5074C236813B900F026FC2060206841
:1037000080EA403080EA504080EA4010206010BDDE
:10371000CC18002010B50446FFF720FB084B2360AF
:1037200002220023A4F836244FF4003284F8343403
:10373000C4F8382484F83C34C4F83034204610BD32
:10374000A044010810B50446C06BFFF792FFA4F82F
:103750002C042046FFF7A1F9B4F82C34A4F84C311E
:103760000E23C4F8DC310023C4F82434C4F8283410
:1037700010BD000073B5884B0446186894F83434C3
:10378000002B4BD000231A460DF1070102F04CFF2D
:103790000546002840D19DF80730412B3CD104F567
:1037A0007576034628217D4AC4F8240430460BF080
:1037B00069FC04F52670C4F8E06209F0DBFC022322
:1037C000A4F836344FF400336422C4F838340123AB
:1037D000A4F82C2484F8FD31A4F84C2184F841315C
:1037E00004F5A47084F83454C4F83054A4F8DE51BD
:1037F00084F8295284F8155184F8E95084F8BD50B2
:1038000084F8915009F0B6FC04F5EC7009F0B2FCB4
:1038100004F5017009F0AEFC02B070BD1A460DF15E
:10382000070102F001FFB0B99DF80710B4F950216B
:10383000B4F92C344C2922D1002B04DDB4F83A24FD
:103840009B1AA4F82C34B4F82C34A4F84C3104F5A9
:10385000A47009F08FFCD4F8303405220133B3FB97
:10386000F2F202EB8202C4F830349B1A013B0121D0
:103870000022032B0ED8DFE803F07B80858A5229D3
:10388000E1D1C2F1F00212B29A42DCDDB4F83A247E
:103890001344D6E784F8411184F89120B4F9DE315D
:1038A000B4F936241344B3F5A07F34DBD4F82434C0
:1038B000D4F828240133934204F57575C8BFC4F8C1
:1038C0002834364AC4F82434282128460BF0DAFB81
:1038D000C4F8E05204F5267004F57F7509F04AFC3F
:1038E000D4F828342D4A282128460BF0CBFB04F5C8
:1038F0001370C4F8945209F03DFCFFF7F9FE3C2325
:1039000000F0030058430F30A4F8DC0104F5EC701C
:1039100009F030FC0023A4F8DE31236820461B6B3D
:10392000984758B1012384F8343484F829320023AD
:1039300084F8FD3104F5017009F01CFCD4F8303432
:103940004FF49672B3FBF2F102FB113373B9B4F981
:103950003634042B0ADCB4F8382401331BB20132AC
:10396000A4F83634A4F83824A4F83A34201D51E7DA
:1039700084F8151184F8412190E784F8E91084F85F
:1039800015218BE784F8BD1084F8E92086E784F8D8
:10399000911084F8BD2081E7F4150020A33C0108B4
:1039A000F02070474FF4A07070472920FDF77EBFCC
:1039B0002820FDF77BBF08B5FDF74CFFCA20FDF7B7
:1039C00075FFC320FDF756FF0820FDF753FF502079
:1039D000FDF750FFCF20FDF769FF0020FDF74AFFFC
:1039E000C120FDF747FF3020FDF744FFED20FDF734
:1039F0005DFF6420FDF73EFF0320FDF73BFF122033
:103A0000FDF738FF8120FDF735FFE820FDF74EFF79
:103A10008520FDF72FFF0020FDF72CFF7820FDF714
:103A200029FFCB20FDF742FF3920FDF723FF2C2093
:103A3000FDF720FF0020FDF71DFF3420FDF71AFFE2
:103A40000220FDF717FFF720FDF730FF2020FDF7DC
:103A500011FFEA20FDF72AFF0020FDF70BFF0020F1
:103A6000FDF708FFB120FDF721FF0020FDF702FF61
:103A70001B20FDF7FFFEB620FDF718FF0A20FDF71B
:103A8000F9FEA220FDF7F6FEC020FDF70FFF102083
:103A9000FDF7F0FEC120FDF709FF1020FDF7EAFE5B
:103AA000C520FDF703FF4520FDF7E4FE1520FDF7D7
:103AB000E1FEC720FDF7FAFE9020FDF7DBFE362081
:103AC000FDF7F4FEC820FDF7D5FEF220FDF7EEFE6F
:103AD0000020FDF7CFFEB020FDF7E8FEC220FDF785
:103AE000C9FEB620FDF7E2FE0A20FDF7C3FEA720BF
:103AF000FDF7C0FE2720FDF7BDFE0420FDF7BAFE4E
:103B00002A20FDF7D3FE0020FDF7B4FE0020FDF7CC
:103B1000B1FE0020FDF7AEFEEF20FDF7ABFE2B203F
:103B2000FDF7C4FE0020FDF7A5FE0020FDF7A2FE74
:103B30000120FDF79FFE3F20FDF79CFEF620FDF7DC
:103B4000B5FE0120FDF796FE0020FDF793FE06204E
:103B5000FDF790FE2C20FDF7A9FEC820FDF7F4FE2E
:103B60002620FDF7A3FE0120FDF784FEE020FDF7EF
:103B70009DFE0F20FDF77EFE2920FDF77BFE242011
:103B8000FDF778FE0C20FDF775FE0E20FDF772FEA6
:103B90000920FDF76FFE4E20FDF76CFE7820FDF743
:103BA00069FE3C20FDF766FE0920FDF763FE132049
:103BB000FDF760FE0520FDF75DFE1720FDF75AFEBC
:103BC0001120FDF757FE0020FDF754FEE120FDF720
:103BD0006DFE0020FDF74EFE1620FDF74BFE1B206C
:103BE000FDF748FE0420FDF745FE1120FDF742FEDB
:103BF0000720FDF73FFE3120FDF73CFE3320FDF7A7
:103C000039FE4220FDF736FE0520FDF733FE0C207D
:103C1000FDF730FE0A20FDF72DFE2820FDF72AFED5
:103C20002F20FDF727FE0F20FDF724FE1120FDF7C2
:103C30003DFEC820FDF788FE2920FDF737FEBDE8D0
:103C400008402C20FDF732BE08B5FDF703FE032126
:103C5000D320FDF747FE80B208BD10B5C4B20222E2
:103C600003212046FDF7ACFD0A20FDF7F1FD2046BB
:103C700000220321FDF7A4FDBDE810400220FDF75E
:103C8000E7BD38B50446E4B2FDF798FD00212046B3
:103C9000FDF7AEFD012105462046FDF7A9FD40EAEE
:103CA000052080B238BD10B5C4B240212046FDF7D2
:103CB0009FFD030607D54C212046FDF799FD0038EE
:103CC00018BF012010BD01224B212046FDF778FDD1
:103CD000204600224B21FDF773FD0020F2E773B56B
:103CE0000423C4B20E461546D7210DEB030220462D
:103CF000FDF798FD019B1BBA1A0DC3F30B2332800D
:103D000020462B8001224B21FDF75AFD00224B213A
:103D10002046FDF755FD02B070BD000010B50A4AFF
:103D20001378984204460DD0517888420AD00BB1DE
:103D300041B90123D454FDF741FD2046BDE81040B0
:103D4000FFF78BBF10BD00BFD018002010B5C4B264
:103D500009212046FDF74CFD40F00102D2B2204679
:103D60000921BDE81040FDF72BBD10B5C4B20921F3
:103D70002046FDF73DFD092100F0FE022046BDE88A
:103D80001040FDF71DBD38B5C4B20D4620460A21CE
:103D9000FDF72EFD40EA0502D2B220460A21BDE819
:103DA0003840FDF70DBD10B50446FDF708FD20466F
:103DB0001F21FFF7E8FF2046BDE81040FFF7C6BF10
:103DC00038B5C4B20D4620460A21FDF711FD20EAA0
:103DD0000502D2B220460A21BDE83840FDF7F0BC0A
:103DE00010B50446FFF7C1FF20461F21BDE8104073
:103DF000FFF7E6BF10B5C0B20C460B21FDF7F8FC8B
:103E0000204010BD1F21FFF7F5BF0A46C0B20B21AD
:103E1000FDF7D6BC1F21FFF7F8BF38B5C4B20D4679
:103E200020461721FDF7E4FC20EA0502D2B2204625
:103E30001721BDE83840FDF7C3BC70B5C4B20646D3
:103E400004212046FDF7D4FC042100F0FB020546C6
:103E50002046FDF7B5FC3046F021FFF7DEFF05F008
:103E6000F80220460421FDF7ABFC49222021204620
:103E7000FDF7A6FC0220FDF7EBFC204601222121E4
:103E8000FDF79EFC20469A224121FDF799FC204631
:103E900001224A21FDF794FC204601224B21FDF727
:103EA0008FFC204600224B21FDF78AFC2046012290
:103EB0005621FDF785FC204601225821FDF780FCA4
:103EC000204601224021FDF77BFC2046FF220B21EA
:103ED000FDF776FCBDE870400220FDF7B9BC00009C
:103EE000054BD3F8882042F47002C3F888204FF0C5
:103EF00000629A60704700BF00ED00E008B50B4B10
:103F00001A6842F400721A601A6842F480621A60F9
:103F10001A6842F480721A60032000F02FF8002023
:103F2000FDF754FFFDF71EFD002008BD003C0240D8
:103F3000034A044B11681B780B441360704700BFA1
:103F4000D418002078000020014B1868704700BF8B
:103F5000D418002038B50446FFF7F6FF631C1CBFD9
:103F6000054B1B78054618BFE418FFF7EDFF431B10
:103F7000A342FAD338BD00BF780000200749CA68C1
:103F800022F4E0620302120403F4E063120C134310
:103F900043F0BF6343F40033CB60704700ED00E0B3
:103FA000164B30B5DC68C4F30224C4F10703251DA9
:103FB000042B28BF0423062D4FF0FF358CBF033C94
:103FC000002405FA03F321EA0303A54022EA0502CF
:103FD000A340002843EA0203ACBF00F16040084A56
:103FE0004FEA0313B8BF00F00F00DBB2AABF00F521
:103FF0006140135480F8003330BD00BF00ED00E095
:1040000014ED00E0002807DB4109044A00F01F001E
:104010000123834042F82130704700BF00E100E0F7
:1040200010B5044650B1437903F0FF0213B9027191
:10403000FDF7B8FC01236371002010BD0120FCE7EF
:1040400010B5044620B390F8393003F0FF021BB9D5
:1040500080F83820FDF7BEFC022384F8393023684D
:1040600061681A6822F440320A431A605A6BA168E8
:1040700022F007020A435A631A6CE1686FF30D02DB
:104080000A431A6400200123E06384F8393010BD2C
:104090000120FCE770477047036870B55E681D68D3
:1040A000F207044614D5E90512D51A6822F4807285
:1040B0001A60C26B42F00102C26301229A600423BB
:1040C00080F83930002380F83830436903B19847CD
:1040D000B20616D5AB0414D523681A6822F4005230
:1040E0001A6020229A60E36B43F00203E363042327
:1040F00084F83930002384F8383063690BB12046E6
:104100009847300716D5290514D523681A6822F474
:1041100000621A6008229A60E36B43F00403E363D1
:10412000042384F83930002384F8383063690BB1F4
:104130002046984772070BD56B0509D523681A6886
:1041400022F480621A6004229A602046FFF7A2FFE0
:10415000B00714D5A90512D523681A6822F4007295
:104160001A6002229A60E36BE363012384F839301A
:10417000002384F8383023690BB120469847F206B3
:1041800013D5EB0411D523681A6822F480521A6003
:1041900010229A60E36BE363012384F83930002333
:1041A00084F838302046FFF776FF70BDF0B590F800
:1041B0003820012A03464FF002002BD0012283F859
:1041C000382083F8390003EB0112D2E90740556A21
:1041D000174F44EA0040093C012C9CBF05F07F4288
:1041E00010434FEA01161A6888BF40EA056091B98A
:1041F000516A394001435162012C9969916103D898
:10420000596A21F07F4191620122002083F8392010
:1042100083F83800F0BDD16939400143D161991963
:10422000012C896911619CBF25F07F451562EBE780
:10423000F0FFFC002DE9F74FDFF8BC916C4A00233A
:104240000D6801249C4004EA0506AC4340F0B780A9
:104250004D68032705F003044FEA430807FA08FCFA
:10426000671E012F6FEA0C0C34D8876807EA0C0E22
:10427000CF6807FA08F747EA0E078760476827EA1A
:10428000060EC5F300179F4047EA0E074760C76850
:1042900007EA0C0E8F6807FA08F747EA0E07022CA8
:1042A000C76019D14FEAD30A00EB8A0A03F0070B63
:1042B000DAF820704FEA8B0B4FF00F0E0EFA0BFE60
:1042C00027EA0E0E0F6907FA0BF747EA0E07CAF83E
:1042D000207001E0032CDAD1076804FA08F407EA39
:1042E0000C073C4315F4403F046068D0002401945F
:1042F000D9F8444044F48044C9F84440D9F84440D3
:1043000023F0030707F1804704F4804407F59C3746
:10431000019403F0030C019CD7F808E04FEA8C0CE1
:104320000F2404FA0CF42EEA040E324CA0424DD0B5
:1043300004F58064A0424BD004F58064A04249D0CB
:1043400004F58064A04247D004F58064A04245D0C3
:1043500004F58064A04243D004F58064A04241D0BB
:1043600004F58064A0423FD004F58064A0423DD0B3
:1043700004F58064A04214BF0A24092404FA0CF452
:1043800044EA0E04BC609468F74315F4801F0CBF28
:104390003C4034439460D46815F4001F0CBF3C408B
:1043A0003443D460546815F4003F0CBF3C403443A0
:1043B00054601468ED0354BF3C403443146001332F
:1043C000102B7FF43DAF03B0BDE8F08F0024D5E79C
:1043D0000124D3E70224D1E70324CFE70424CDE767
:1043E0000524CBE70624C9E70724C7E70824C5E767
:1043F000003C0140000002400038024003691942BD
:1044000014BF0120002070470AB181617047090480
:10441000FBE7436901EA030221EA030141EA0241A1
:104420008161704770470000044A5169014208B534
:1044300002D05061FFF7F6FF08BD00BF003C01400D
:1044400001684B6913F480634FF0000210D06FF4E1
:1044500080634B612023026380F83D3080F83E206A
:10446000036C80F83C2043F0040303640120704790
:10447000184670472DE9F84606460F4691461D46F8
:104480004FEA114A3368BAF1010F0CBF5C699C69AD
:1044900027EA0404A4B2B4FA84F46409A14501D063
:1044A000002017E06A1CEED0FFF74EFD089BC01AF3
:1044B000A84201D8002DE5D100232022336386F8DD
:1044C0003D2086F83E30326C86F83C3042F02002C7
:1044D00032640120BDE8F8862DE9F04104460F461C
:1044E000164698462568686927EA000080B2C0B180
:1044F0006B695A0517D52B6843F400732B606FF472
:1045000080636B6120220023236384F83D2084F8BC
:104510003E30236C43F004032364002384F83C30D2
:104520000120BDE8F081731CDDD0FFF70DFDA0EB8D
:104530000800B04209D900232022236384F83D20DB
:1045400084F83E30236C1343E6E7002ECAD1F2E72D
:1045500070B504460D46164623685B691B0601D5F7
:10456000002018E02046FFF76BFF98B96A1CF3D0D3
:10457000FFF7EAFC801BA8420ED900232022236308
:1045800084F83D2084F83E30226C84F83C3042F0C0
:1045900020022264012070BD002DDDD1EDE7000076
:1045A0002DE9F0431546026885B0DDE90C7899469F
:1045B000136843F4807313600E463B46CDF80080C9
:1045C00000224FF001110446FFF754FF236838B171
:1045D0001B68DB0502D54FF400732364032620E03B
:1045E00006F0FE061E611A4943463A462046FFF78A
:1045F00073FFA8B9236803905A6903929B690393D8
:10460000424639462046039BFFF7A2FF064660B1AB
:10461000236C042B01BF2268136843F400731360FA
:104620000126304605B0BDE8F083B9F1010F2368DB
:1046300002D1EDB21D61F4E72A0A1A6139464246F9
:104640002046FFF785FF0028E2D12368F1E700BF8D
:10465000020001002DE9FF479A46036815461A68D3
:1046600042F480621A601A68DDE90C7842F48072C4
:104670001A600E463B46CDF8008000224FF0011133
:104680000446FFF7F7FE236838B11B68DB0544BF1B
:104690004FF400732364032021E05FFA86F906F0EB
:1046A000FE061E612B4943463A462046FFF714FF9B
:1046B000A0B9236803905A6903929B690393424609
:1046C00039462046039BFFF743FF58B1236C042B68
:1046D00001BF2268136843F400731360012004B023
:1046E000BDE8F087BAF1010F23681AD1EDB2424656
:1046F0001D6139462046FFF72BFF02460028E5D111
:1047000021680B6843F480730B602046CDF800806D
:104710003B464FF00111FFF7ADFE226860B1136810
:10472000B4E72A0A1A61394642462046FFF710FFCD
:104730000028CBD12368D9E749F00103136105496B
:1047400043463A462046FFF7C7FE003818BF01200F
:10475000C5E700BF0200010070B504460D461646CD
:1047600023685B695B0701D5002018E02046FFF74E
:1047700067FE98B96A1CF3D0FFF7E6FB801BA842DE
:104780000ED900232022236384F83D2084F83E3094
:10479000226C84F83C3042F020022264012070BD7B
:1047A000002DDDD1EDE770B504460D4616462168B3
:1047B0004B6913F0400301D0002011E04A69D20692
:1047C0000FD56FF010024A612022236384F83D2048
:1047D00084F83E30236C2364002384F83C300120AD
:1047E00070BDFFF7B1FB801BA84209D9002320222E
:1047F000236384F83D2084F83E30236C1343EAE7BA
:10480000002DD4D1F2E7000070B5044608B90120AC
:1048100070BD90F83D3003F0FF021BB980F83C20DA
:10482000FDF7FAF8242384F83D3023681A6822F053
:1048300001021A601A6842F400421A601A6822F4EF
:1048400000421A6000F066FE3F4B65689D4294BFCF
:104850003E4B3F4B98428CBF00230123002BD6D107
:104860002268394E51683B4BB0FBF3F321F03F0116
:104870001943B542516088BF4FF49676116A88BFDC
:10488000734321F03F0184BF4FF47A76B3FBF6F314
:1048900001330B431362D169431E2B4821F44F416E
:1048A000854221F0FF0132D86D0040F6FC70B3FB69
:1048B000F5F30133034242D0C3F30B031943D16133
:1048C000D4E907301168034321F0C0010B431360A2
:1048D0009168D4E9030321F40341034321F0FF016C
:1048E0000B439360D4E90530D168034321F0FF0105
:1048F0000B43D360136843F00103136000202023AF
:10490000206484F83D30206384F83E0080E7A0688E
:1049100050B905EB4505B3FBF5F30133C3F30B03C6
:104920007BB143F40043C9E719206843B3FBF0F3BC
:104930000133C3F30B0323B143F44043BEE7042325
:10494000BCE70123BAE700BFA08601007F841E00F8
:10495000FF083D0040420F002DE9F7430446994609
:104960000C9E0F469046FFF7EFFA94F83D30202B4F
:10497000054603D0022003B0BDE8F08300903C4917
:10498000192301222046FFF775FD0028F2D194F883
:104990003C30012BEED02068012384F83C300368C2
:1049A000D9075EBF036843F001030360036823F483
:1049B00000630360212384F83D30402384F83E30B7
:1049C000002323640A9B6362BDF82C306385638DEA
:1049D0002385284BE3624246CDE900654B463946C4
:1049E0002046FFF7DDFD00282AD00120C3E7FFF7AE
:1049F000AFFD40B1236C042B01BF2268136843F460
:104A000000731360F1E7636A27681A4612F8011B06
:104A100039616262628D218D013A92B262857A6952
:104A2000481E80B2520720850AD548B15A783A61AB
:104A300002336362638D013B02399BB2218563853A
:104A4000238D2A4631462046002BD0D1FFF784FE25
:104A50000028CFD12268136843F400731360202329
:104A600084F83D3084F83C0084F83E0083E700BFC2
:104A7000020010000000FFFF2DE9F043044687B05C
:104A80009946109F0D469046FFF75EFA94F83D3028
:104A9000202B064604D00225284607B0BDE8F08347
:104AA00000907649192301222046FFF7E3FC0028F5
:104AB000F1D194F83C30012BEDD02068012384F82B
:104AC0003C300368DB075EBF036843F0010303600B
:104AD000036823F400630360222384F83D304023FD
:104AE00084F83E30002323640E9B6362BDF83C30A3
:104AF0006385638D2385624BE3622946CDE90076A9
:104B00004B4642462046FFF7A5FD054608B1012564
:104B1000C2E7228D2368B2B902905A6902929A695B
:104B20000292029A1A6842F400721A60DFF8548105
:104B3000238D002B2CD1202284F83D2084F83C309A
:104B400084F83E30A8E7012A0AD11A6822F480626C
:104B50001A6003905A6903929A690392039AE1E7F3
:104B6000022A0ED11A6822F480621A601A6842F48E
:104B700000621A6004905A6904929B690493049B32
:104B8000D4E705905A6905929B690593059BCDE78B
:104B9000032B56D8012B15D1324639462046FFF754
:104BA00002FE0028B3D123681A69636A1A70636A27
:104BB00001336362238D013B2385638D013B9BB2EF
:104BC0006385B5E7022B00963B464FF00002414655
:104BD000204619D1FFF74EFC002898D123681A68A7
:104BE00042F400721A601A69636A1A70626A531C8E
:104BF0006362238D013B2385638D013B9BB26385FB
:104C000023681B695370D2E7FFF734FC0246002883
:104C10007FF47DAF2368196821F4806119601969F8
:104C2000636A1970636A01336362238D013B2385D4
:104C3000638D013B9BB26385414600963B4620460F
:104C4000C8E7324639462046FFF7ADFD00287FF41D
:104C50005EAF23681A69636A1A70626A531C6362E2
:104C6000238D013B2385638D013B9BB263852368C4
:104C7000596949077FF55CAFC3E700BF0200100028
:104C80000000FFFF0400010010B590F83D30202B1C
:104C9000DCB216D1242380F83D3003681A6822F074
:104CA00001021A605A6A22F010025A625A6A1143CB
:104CB00059621A6842F001021A6080F83D400020F3
:104CC00010BD0220FCE730B590F83D30202BDCB25F
:104CD00016D10268242380F83D30136823F00103C5
:104CE0001360556A4FF6F0732B400B439BB253622F
:104CF000136843F00103136080F83D40002030BD8D
:104D00000220FCE70068D1F800C0D2018432831889
:104D10002DE9F043C6685D684C68D1F8189005F439
:104D200070455D60C5680CF10107C5F30B45C6F31E
:104D30000B4626443D4445EA06455D60C668CD689D
:104D4000C6F30A062E449D6805F470459D60C76849
:104D50008D68C7F30A0701353D4445EA06459D6065
:104D60001D690E6925F007051D614FF0000E1E61DB
:104D700091F832709D6991F83180C3F818E091F88C
:104D8000305045EA096545EA082545EA07459D6131
:104D90005D6925F0FF055D614D695D61DD6925F4A3
:104DA000E06525F00705DD61D1E907573D43DD6189
:104DB0009D6A4D6AC3F828E0072E9D629CBF0E4D88
:104DC000AE5DDD6A05F0E025DD6288BF01268D6AF3
:104DD000C96AA4EB0C0474437543033444EA0544E4
:104DE000DC621C6B6FF30A041C631963835843F085
:104DF00001038350BDE8F083EC44010838B5044654
:104E0000002863D090F8A13003F0FF021BB980F8AE
:104E1000A020FCF75DFE022384F8A13023689A6984
:104E200022F070429A61D4E901200243E068996956
:104E30000243206902430A439A619A6824496069DF
:104E40000A409A609A6842EA0042A06902439A6066
:104E5000DA68E0690A40DA60DA6842EA0042206A09
:104E60000243DA601A69606A0A401A611A6942EA02
:104E70000042A06A02431A615A690A405A615A699B
:104E8000E16A42EA0142216B0A435A61DA6A94F804
:104E9000350094F8361002F07F42DA62DD6A94F849
:104EA00034202A4342EA002242EA0142DA625A6B83
:104EB00042F006025A639A6942F001029A610020A8
:104EC0000123C4F8A40084F8A13038BD0120FCE718
:104ED00000F800F070477047036870B59E6B5D6B1B
:104EE0007207044614D5690712D55A6B22F00402E2
:104EF0005A630422DA63D0F8A43043F00103C0F807
:104F0000A430002380F8A12080F8A030FFF7E2FF52
:104F1000B20716D5AB0714D523685A6B22F00202EC
:104F20005A630222DA63D4F8A4301343C4F8A430DD
:104F3000042384F8A130002384F8A0302046FFF732
:104F4000C9FFF00710D5E9070ED523685A6B22F088
:104F500001025A630122DA63002384F8A12084F855
:104F6000A0302046FCF778F9320711D52B070FD572
:104F700023685A6B22F008025A630822DA6301237D
:104F800084F8A130002384F8A0302046FFF7A3FF67
:104F900070BD2DE9F04190F8A030012B06460F4678
:104FA00094464FF002001FD04FF0010886F8A08011
:104FB00086F8A10034240D4604FB02640FCD38347A
:104FC0000FC40FCD0FC40FCD0FC42B682360304624
:104FD00062463946FFF796FE33680020C3F8248006
:104FE00086F8A18086F8A000BDE8F08190F8A020A6
:104FF000012A03464FF0020012D01A6883F8A1007C
:10500000506B20F00100506306480164516B41F081
:10501000010151630020012283F8A12083F8A00040
:10502000704700BF006801402DE9F341044640B3DA
:105030000368DE0710D423689D075BD42368190733
:1050400000F19D8023685A0700F1BD80A369002B01
:1050500040F0248100202CE08D4B9A6802F00C0275
:10506000042A07D09A6802F00C02082A0BD15B6868
:10507000590208D5864B1B689A03DCD56368002B60
:10508000D9D1012015E06368814DB3F5803F13D17C
:105090002B6843F480332B60FEF756FF7C4E0546A9
:1050A00033689B03C7D4FEF74FFF401B6428F7D932
:1050B000032002B0BDE8F081B3F5A02F04D12B6826
:1050C00043F480232B60E3E72A6822F480322A60CD
:1050D0002A6822F480222A60002BDDD1FEF734FFFB
:1050E00006462B689F03A6D5FEF72EFF801B64287B
:1050F000F7D9DDE7664B9A6812F00C0F07D09A6873
:1051000002F00C02082A11D15B685D020ED4604ADD
:105110001368990702D5E368012BB2D1136821699E
:1051200023F0F80343EAC103136087E7E268594BB1
:10513000B2B101221A60FEF707FF554D06462B68F3
:105140009B0707D52B68226923F0F80343EAC203C3
:105150002B6073E7FEF7F8FE801B0228EFD9A7E764
:105160001A60FEF7F1FE4A4E054633689F077FF549
:1051700065AFFEF7E9FE401B0228F6D998E76269A1
:10518000444B82B10122C3F8802EFEF7DDFE404E73
:105190000546736F9B073FF555AFFEF7D5FE401BE5
:1051A0000228F6D984E7C3F8802EFEF7CDFE384EEC
:1051B0000546736F9F077FF545AFFEF7C5FE401BA1
:1051C0000228F6D974E7324B1A6C12F0805228D1BB
:1051D00001921A6C42F080521A641B6C03F08053E7
:1051E0000193019B01272C4D2B68D8051BD5A36883
:1051F000274D012B27D12B6F43F001032B67FEF7BF
:10520000A3FE234E054641F28838336F9A0739D5FD
:10521000002F3FF41BAF1E4A136C23F0805313641E
:1052200014E70027DFE72B6843F480732B60FEF759
:105230008BFE06462B68D905D9D4FEF785FE801B68
:105240000228F7D934E7052B04D12B6F43F0040370
:105250002B67D0E72A6F22F001022A672A6F22F01B
:1052600004022A67002BCAD1FEF76EFE41F288388D
:1052700006462B6F9B07CBD5FEF766FE801B40458D
:10528000F7D915E7FEF760FE401B4045BDD90FE793
:10529000003802400000474200700040374DAA68C5
:1052A00002F00C02082A3ED0022B354B4FF00002D0
:1052B0001A662BD1FEF748FE06462B6899011FD4CB
:1052C000D4E907321343626A43EA8213E26A43EA8B
:1052D0000263A26A5208013A43EA02436B60284B18
:1052E000264D01221A66FEF72FFE04462B689A010E
:1052F0003FF5B0AEFEF728FE001B0228F6D9D7E630
:10530000FEF722FE801B0228D7D9D1E6FEF71CFE4D
:1053100004462B689B017FF59DAEFEF715FE001B32
:105320000228F6D9C4E6012B3FF4ABAE6B68E26904
:1053300003F4800191427FF4A4AE216A03F03F029E
:105340008A427FF49EAE616A47F6C0721A40B2EBA1
:10535000811F7FF496AEA26A520803F44031013AED
:10536000B1EB024F7FF48DAEE26A03F07063B3EBF2
:10537000026F14BF012000209BE600BF00380240EE
:1053800000004742134908B58B6803F00C03042B57
:105390001CD0082B1CD14A684B68496813F4800361
:1053A00014BF0D480D48C1F3881118BF002302F047
:1053B0003F02A1FB0001FAF76BFF064B5B68C3F3EA
:1053C000014301335B00B0FBF3F008BD0248FCE78A
:1053D0000248FAE70038024000127A000024F40084
:1053E0002DE9F0410D46044610B90120BDE8F081D9
:1053F000434B1A6802F00F028A4228D321688F07B4
:105400002DD4C80740D43E4B1A6802F00F02AA42BE
:1054100065D8226851076BD4130707D5394A21692B
:10542000936823F4604343EAC1039360FFF7AAFF44
:10543000344B354A9B68C3F30313D35CD840334BDA
:105440001860334B1868FCF7C1FC0020CEE7CAB2E5
:105450001A701B6803F00F038B42C6D1CEE7294BAD
:1054600011F0040F1EBF9A6842F4E0529A600E07D2
:1054700042BF9A6842F460429A609A68A06822F03B
:10548000F00202439A60BCE762681E4B012A1CD1FD
:105490001B6813F4003FA8D01A4EB36823F003032F
:1054A0001343B360FEF750FD41F288380746B368F6
:1054B000626803F00C03B3EB820FA4D0FEF744FD47
:1054C000C01B4045F3D9032090E7911E01291B68BA
:1054D00002D813F0007FDEE713F0020FDBE7EAB239
:1054E0001A701B6803F00F03AB427FF47EAF90E7A6
:1054F0000449E0688B6823F4E05303438B608BE737
:10550000003C024000380240DC44010874000020E6
:105510007C000020044B054A9B68C3F38223D35CC4
:10552000034A1068D840704700380240D44401084C
:10553000740000200F2303600B4B9A6802F00302F3
:1055400042609A6802F0F00282609A6802F4E052C7
:10555000C2609B68DB0803F4E0530361034B1B68E4
:1055600003F00F030B60704700380240003C02401C
:10557000036813F0430FF7B5044640F088802368B2
:1055800013F00C0F45D08C4B8C4D00221A67FEF7A0
:10559000DBFC06462B68990000F1CB8021684A07A6
:1055A00015D5D4E90403D5F888201B0602F0E042A3
:1055B00043EA80131343C5F88830D5F88C30226A4B
:1055C00023F4F853013A43EA0223C5F88C300B0761
:1055D00014D57A4AA369D2F8881020691B0701F014
:1055E000706143EA80130B43C2F88830D2F88C30E4
:1055F000616A23F440330B43C2F88C306E4B6F4E1C
:1056000001221A67FEF7A0FC054633689F0040F1AF
:1056100097802368980634D500230193674B684D23
:105620001A6C42F080521A641B6C03F08053019391
:10563000019B2B6843F480732B60FEF785FC0646C4
:105640002B68D80540F183805C4DA26A2B6F13F460
:10565000407340F08380A36A03F44072B2F5407F48
:10566000564A40F09E80916823F0704021F4F81172
:1056700020F4407001439160116FC3F30B030B439F
:1056800013672368DB0600F1908000204FE04A4B4F
:105690004A4E00229A66FEF757FC054633681F0102
:1056A0003FD42168C80741BFD4E901231B0743EA5F
:1056B0008213C6F884308A0715D5404AE368D2F8C9
:1056C000840065681B0600F0E04043EA851303434D
:1056D000C2F88430D2F88C00E36920F01F00013B4F
:1056E0000343C2F88C304B060AD5E36862681B0698
:1056F00043EA8213A26843EA0273304AC2F8843054
:105700002D4B2E4E01229A66FEF71EFC054633688D
:105710001F013FF534AFFEF717FC401B0228F6D9F6
:1057200004E0FEF711FC401B0228B7D9032003B0A8
:10573000F0BDFEF709FC801B02287FF62BAFF5E7D2
:10574000FEF702FC401B02287FF65FAFEEE7FEF794
:10575000FBFB801B02287FF673AFE7E702F4407281
:1057600093423FF478AF2B6F134A0121C2F8401ED9
:1057700023F440730021C2F8401E2B672B6FD9071A
:105780007FF569AFFEF7E0FB41F2883706462B6FE5
:105790009A073FF560AFFEF7D7FB801BB842F6D9FA
:1057A000C4E7916821F4F81165E7064B94F82C20C2
:1057B000C3F8E02169E700BF00004742003802401B
:1057C000007000400010474238B50D460446C8B18D
:1057D00090F82C3003F0FF021BB980F82D20FCF765
:1057E00089FA022384F82C30211D206800F0E6FCA1
:1057F00062682068294600F017FD012384F82C30E8
:10580000002038BD0120FCE770B590F82C30022B49
:1058100005460E46D8B212D000F0FB04012C0FD181
:10582000022385F82C30286800F034FD3368022B01
:1058300006BF052385F82C3085F82C40002070BD6C
:105840000120FCE738B590F82C30022B0446D8B282
:105850000DD094F82C30012BDDB209D10223206841
:1058600084F82C3000F03AFD84F82C50002038BD2C
:105870000120FCE72DE9F3411C4616460F4605467C
:10588000FEF762FB3444241AFEF75EFB244B1B68D0
:10589000C3F3CB336343804601932A68936837EAA6
:1058A000030301D000202EE0731CF7D0FEF74CFB61
:1058B000A0EB0800A04229D32B685A6822F0E0022E
:1058C0005A606A68B2F5827F0AD1AA68B2F5004FC1
:1058D00002D0B2F5806F03D11A6822F040021A603C
:1058E000AA6AB2F5005F07D11A6822F400521A6062
:1058F0001A6842F400521A60012385F851300023DF
:1059000085F85030032002B0BDE8F081019A019B78
:10591000002A03F1FF33019308BF1446BDE700BF1F
:105920007400002038B513464268B2F5827F044601
:1059300006D00A460121FFF79DFFB8B9002038BD07
:105940008268B2F5004F02D0B2F5806F07D12568AA
:105950002868B2F5806F20F04000286003D00A4626
:1059600080212046E7E70A460121FAE7636D43F00C
:10597000200363650320E2E737B51346124A156832
:10598000124AB5FBF2F54FF47A725543426801951D
:10599000B2F5827F04460BD10A468021FFF76AFFE9
:1059A00078B1636D43F020036365032003B030BD1D
:1059B000019B33B1019B013B019323689B681B064C
:1059C000F6D40020F2E700BF7400002000366E011C
:1059D00010B50446002855D0436A002B4ED14268CA
:1059E000B2F5827F00D0C3610023A36294F85130E6
:1059F00003F0FF0223B984F850202046FCF744F955
:105A00002168A068A269022384F851300B6823F052
:105A100040030B60636800F4044003F482730343A3
:105A2000E06800F400600343206900F002000343D3
:105A3000606900F00100034302F400700343E06971
:105A400000F038000343206A00F080000343A06A9E
:105A500000F4005003430B60636A120C03F0100360
:105A600002F004021A434A60CB6923F40063CB615D
:105A700000200123606584F8513010BD0023C0E987
:105A80000433B1E70120F8E72DE9F7431F4690F80A
:105A90005030012B04460D46904600F0A0800123B3
:105AA00080F85030FEF750FA94F85130012B8146BF
:105AB000D8B240F09280002D61D0B8F1000F5ED0D6
:105AC000032384F8513000236365C4E91033A4F83C
:105AD0003680A363A387E387A36826682563B3F5AD
